:1000000000EE00F010EE05F00AEC00F0000EF86EC5
:10001000ECEF3DF0EE6AE550E150FCE1E250FAE130
:020020001200CC
:10777C0000D09EA801D001D0FCD70FC1ADFF1200E4
:10778C0000D09EAA01D001D0FCD7AE5000D0120080
:10779C000101026F560EAF6E01010251AC8AAC842E
:1077AC00AB8EAB88B886120002C104F103C105F19F
:1077BC00EAEC3BF0FB0E01010101046F7F0E0101AD
:1077CC00056FEAEC3BF0120012D000D09EA801D05D
:1077DC0001D0FCD7010104C1F6FF010105C1F7FF7F
:1077EC000800F5CFADFF01010101044B052B010190
:1077FC0004C1F6FF010105C1F7FF0800F5500009AF
:10780C00D8A401D001D0E1D712000101156F000EF0
:10781C0001010101136F010115510101010110AFAB
:10782C0001D001D00FD0010101010F6D0101101F1A
:10783C00D8B0102B0101156F010E01010101136F5E
:10784C00010115510101010112AF01D001D007D086
:10785C0001010101116D0101121FD8B0122B0101A0
:10786C00010112511111D8B401D001D03ED0010147
:10787C00156F010E01010101146F0101155109D0A1
:10788C000101D890010111370101123701010101E9
:10789C00142B0101010112AF01D001D0F1D701016C
:1078AC0001011151010101010F5D01010101125191
:1078BC00010101011059D8A001D001D00CD0010157
:1078CC0001011151010101010F5F0101010112516F
:1078DC0001010101105B0101D8900101123301017A
:1078EC00113301010101142FDAD7010101011351E8
:1078FC00D8B401D001D007D0010101010F6D0101F5
:10790C00101FD8B0102B0FC10FF110C110F100D007
:10791C0012000101176F000E01010101146F01012A
:10792C0017510101010112AF01D001D00FD001019B
:10793C000101116D0101121FD8B0122B0101176F3B
:10794C00010E01010101146F010117510101010127
:10795C0010AF01D001D00BD0010101010F6D01015D
:10796C00101FD8B0102B010E01010101141B000EC9
:10797C0001010101156F000E0101166F01010101DA
:10798C0012511111D8B401D001D047D00101176F99
:10799C00010E01010101136F0101175109D0010101
:1079AC00D890010111370101123701010101132B8C
:1079BC000101010112AF01D001D0F1D70101D89022
:1079CC0001011537010116370101010111510101A6
:1079DC0001010F5D01010101125101010101105959
:1079EC00D8A001D001D00FD001010101115101012A
:1079FC0001010F5F01010101125101010101105B35
:107A0C000101010115810101D8900101123301011D
:107A1C00113301010101132FD1D7010101011451BF
:107A2C00D8B401D001D007D001010101156D0101BD
:107A3C00161FD8B0162B15C10FF116C110F100D0BE
:107A4C0012000101010103AF01D001D011D00101DD
:107A5C000E6F2D0E010101010F6F01010E51BEECD5
:107A6C003BF001010101026D0101031FD8B0032B92
:107A7C0000EE00F011EE09F0050EEECFE6FFE82E59
:107A8C00FCD7040E01010101076F000E0101086F04
:107A9C00000E01010101056F000E0101066F31D0CE
:107AAC000101090E010101010725E96EEA6A0101D4
:107ABC00010EEA220A0E01010101116F000E0101F3
:107ACC00126F02C10FF103C110F10BEC3CF001017C
:107ADC0001010F51EF6E0A0E01010101116F000E31
:107AEC000101126F02C10FF103C110F18FEC3CF0D8
:107AFC000FC102F110C103F1010101010707D8A068
:107B0C0008070101010103510211D8A401D001D0D1
:107B1C00C7D7050E01010101046501D001D015D0B4
:107B2C0004D001010101054B062B0101090E0101D5
:107B3C0001010525E96EEA6A0101010EEA22EF5006
:107B4C00D8B401D001D0EDD70ED001010101045100
:107B5C00050801010101056F0101000ED8A0E82AFA
:107B6C0000080101066F05C107F106C108F101010A
:107B7C0001010851800A800F050ED8B4075DD8A00A
:107B8C0001D001D001D021D00101090E0101010168
:107B9C000725E96EEA6A0101010EEA22EF50300F67
:107BAC00010101010F6FBEEC3BF001010101074B1C
:107BBC00082B010101010851800A800F050ED8B471
:107BCC00075DD8A001D001D0DFD71200CEEC3BF07E
:107BDC003A0E01010101026F7F0E0101036FDAEC15
:107BEC003BF0B40E01010101026F7E0E0101036F27
:107BFC00DAEC3BF0910E01010101026F7F0E0101E5
:107C0C00036FDAEC3BF0B40E01010101026F7E0E42
:107C1C000101036FDAEC3BF03A0E01010101026F36
:107C2C007F0E0101036FDAEC3BF0D70E010101016D
:107C3C00026F7E0E0101036FDAEC3BF0B60E010110
:107C4C000101026F7E0E0101036FDAEC3BF0190E9D
:107C5C0001010101026F7F0E0101036FDAEC3BF0B1
:107C6C00B40E01010101026F7E0E0101036FDAEC0B
:107C7C003BF0770E01010101026F7F0E0101036FD2
:107C8C00DAEC3BF0AA0E01010101046F7F0E010139
:107C9C00056FEAEC3BF00101016FFF0E01010101E0
:107CAC00046F01010151630E01010101026F000E0D
:107CBC000101036F27EC3DF0B40E01010101026FCD
:107CCC007E0E0101036FDAEC3BF0BF0E01010101E6
:107CDC00046F7F0E0101056FEAEC3BF00101016FAF
:107CEC00FF0E01010101046F01010151E80E0101B8
:107CFC000101026FFF0E0101036F27EC3DF0B40E82
:107D0C0001010101026F7E0E0101036FDAEC3BF001
:107D1C008F0E01010101046F7E0E0101056FEAEC6B
:107D2C003BF00101016F050E01010101046F01011E
:107D3C0001510E0E01010101026F030E0101036FCF
:107D4C0027EC3DF0B40E01010101026F7E0E010122
:107D5C00036FDAEC3BF0B40E01010101026F7E0EF1
:107D6C000101036FDAEC3BF0B40E01010101026F6B
:107D7C007E0E0101036FDAEC3BF0F80E01010101FC
:107D8C00026F7E0E0101036FDAEC3BF0320E010143
:107D9C000101026F7E0E0101036FDAEC3BF05B0E0A
:107DAC0001010101026F7F0E0101036FDAEC3BF060
:107DBC00E80E01010101026F7F0E0101036FDAEC85
:107DCC003BF0D40E01010101026F7F0E0101036F24
:107DDC00DAEC3BF0610E01010101026F7E0E010134
:107DEC00036FDAEC3BF0C6EC3BF001010101006FD4
:107DFC000101016F3C0E010101010F6F01010151E5
:107E0C00BEEC3BF000C10FF1BEEC3BF00101016F89
:107E1C003E0E010101010F6F01010151BEEC3BF05F
:107E2C00E2D700EF00F0416E792043686172616324
:107E3C0074657220796F7520747970652077696C20
:107E4C006C2062652072657475726E65642062794F
:107E5C00204D435500546869732074657374732006
:107E6C007468617420626F746820527820616E644B
:107E7C002054782061726520776F726B696E672071
:107E8C004F4B00416E20496E7465676572207769AF
:107E9C007468206669786564206669656C6420770F
:107EAC00696474682835293A200020202D427920F5
:107EBC0065587472656D6520456C656374726F6E80
:107ECC006963732C20496E64696100202020202096
:107EDC002020202020202020202020202020202096
:107EEC002D55534152542044656D6F00506C6561A3
:107EFC0073652074797065206F6E205043204B653C
:107F0C0079626F617264202E2E2E2E2E002020207E
:107F1C0020202020202020202020202020202D4622
:107F2C006F722050494331384634353230002A2A9A
:107F3C002A2A2A2A2A2A2A2A2A2A2A2A2A2A2A2A95
:107F4C002A2A2A2A2A2A2A2A2A2A2A2A2A2A004297
:107F5C00757420656E636C6F73656420696E7369EC
:107F6C006465203C20616E64203E00496E74656738
:107F7C006572205072696E74696E672054657374F3
:107F8C00202E2E2E002020202020202020474F4461
:107F9C0020495320475245415420212121004120A2
:107FAC00706F73697469766520696E746567657244
:107FBC003A200041206E6567617469766520696EB0
:107FCC0074656765723A20004D43552077696C6C77
:107FDC002072657475726E203C613E0045672E20E0
:107FEC00696620796F752070726573732061000D5E
:047FFC000A00000077
:020000040030CA
:0A00000000021F1E0081C1000FC0A6
:00000001FF
